{
  "_format": "hh-sol-artifact-1",
  "contractName": "NationalAssemblyVoting",
  "sourceName": "contracts/NationalAssemblyVoting.sol",
  "abi": [
    {
      "inputs": [],
      "stateMutability": "nonpayable",
      "type": "constructor"
    },
    {
      "anonymous": false,
      "inputs": [
        {
          "indexed": true,
          "internalType": "address",
          "name": "delegateWallet",
          "type": "address"
        }
      ],
      "name": "DelegateRemoved",
      "type": "event"
    },
    {
      "anonymous": false,
      "inputs": [
        {
          "indexed": true,
          "internalType": "address",
          "name": "delegateWallet",
          "type": "address"
        },
        {
          "indexed": false,
          "internalType": "string",
          "name": "name",
          "type": "string"
        },
        {
          "indexed": false,
          "internalType": "string",
          "name": "province",
          "type": "string"
        }
      ],
      "name": "DelegateWhitelisted",
      "type": "event"
    },
    {
      "anonymous": false,
      "inputs": [
        {
          "indexed": true,
          "internalType": "uint256",
          "name": "proposalId",
          "type": "uint256"
        },
        {
          "indexed": false,
          "internalType": "string",
          "name": "title",
          "type": "string"
        }
      ],
      "name": "ProposalCreated",
      "type": "event"
    },
    {
      "anonymous": false,
      "inputs": [
        {
          "indexed": true,
          "internalType": "uint256",
          "name": "proposalId",
          "type": "uint256"
        }
      ],
      "name": "VoteCast",
      "type": "event"
    },
    {
      "anonymous": false,
      "inputs": [
        {
          "indexed": true,
          "internalType": "uint256",
          "name": "proposalId",
          "type": "uint256"
        }
      ],
      "name": "VotingEnded",
      "type": "event"
    },
    {
      "anonymous": false,
      "inputs": [
        {
          "indexed": true,
          "internalType": "uint256",
          "name": "proposalId",
          "type": "uint256"
        }
      ],
      "name": "VotingStarted",
      "type": "event"
    },
    {
      "inputs": [
        {
          "internalType": "address",
          "name": "_delegate",
          "type": "address"
        },
        {
          "internalType": "string",
          "name": "_name",
          "type": "string"
        },
        {
          "internalType": "string",
          "name": "_province",
          "type": "string"
        }
      ],
      "name": "addDelegate",
      "outputs": [],
      "stateMutability": "nonpayable",
      "type": "function"
    },
    {
      "inputs": [
        {
          "internalType": "string",
          "name": "_title",
          "type": "string"
        },
        {
          "internalType": "string",
          "name": "_description",
          "type": "string"
        }
      ],
      "name": "createProposal",
      "outputs": [],
      "stateMutability": "nonpayable",
      "type": "function"
    },
    {
      "inputs": [
        {
          "internalType": "uint256",
          "name": "",
          "type": "uint256"
        }
      ],
      "name": "delegateAddresses",
      "outputs": [
        {
          "internalType": "address",
          "name": "",
          "type": "address"
        }
      ],
      "stateMutability": "view",
      "type": "function"
    },
    {
      "inputs": [
        {
          "internalType": "address",
          "name": "",
          "type": "address"
        }
      ],
      "name": "delegateProfiles",
      "outputs": [
        {
          "internalType": "address",
          "name": "wallet",
          "type": "address"
        },
        {
          "internalType": "string",
          "name": "name",
          "type": "string"
        },
        {
          "internalType": "string",
          "name": "province",
          "type": "string"
        },
        {
          "internalType": "bool",
          "name": "active",
          "type": "bool"
        }
      ],
      "stateMutability": "view",
      "type": "function"
    },
    {
      "inputs": [],
      "name": "electionCommission",
      "outputs": [
        {
          "internalType": "address",
          "name": "",
          "type": "address"
        }
      ],
      "stateMutability": "view",
      "type": "function"
    },
    {
      "inputs": [
        {
          "internalType": "uint256",
          "name": "_proposalId",
          "type": "uint256"
        }
      ],
      "name": "endVoting",
      "outputs": [],
      "stateMutability": "nonpayable",
      "type": "function"
    },
    {
      "inputs": [],
      "name": "getDelegateAddresses",
      "outputs": [
        {
          "internalType": "address[]",
          "name": "",
          "type": "address[]"
        }
      ],
      "stateMutability": "view",
      "type": "function"
    },
    {
      "inputs": [
        {
          "internalType": "address",
          "name": "_delegate",
          "type": "address"
        }
      ],
      "name": "getDelegateProfile",
      "outputs": [
        {
          "internalType": "address",
          "name": "wallet",
          "type": "address"
        },
        {
          "internalType": "string",
          "name": "name",
          "type": "string"
        },
        {
          "internalType": "string",
          "name": "province",
          "type": "string"
        },
        {
          "internalType": "bool",
          "name": "active",
          "type": "bool"
        }
      ],
      "stateMutability": "view",
      "type": "function"
    },
    {
      "inputs": [
        {
          "internalType": "uint256",
          "name": "",
          "type": "uint256"
        },
        {
          "internalType": "address",
          "name": "",
          "type": "address"
        }
      ],
      "name": "hasVoted",
      "outputs": [
        {
          "internalType": "bool",
          "name": "",
          "type": "bool"
        }
      ],
      "stateMutability": "view",
      "type": "function"
    },
    {
      "inputs": [
        {
          "internalType": "uint256",
          "name": "",
          "type": "uint256"
        }
      ],
      "name": "proposals",
      "outputs": [
        {
          "internalType": "uint256",
          "name": "id",
          "type": "uint256"
        },
        {
          "internalType": "string",
          "name": "title",
          "type": "string"
        },
        {
          "internalType": "string",
          "name": "description",
          "type": "string"
        },
        {
          "internalType": "uint256",
          "name": "votesYes",
          "type": "uint256"
        },
        {
          "internalType": "uint256",
          "name": "votesNo",
          "type": "uint256"
        },
        {
          "internalType": "uint256",
          "name": "votesAbstain",
          "type": "uint256"
        },
        {
          "internalType": "bool",
          "name": "votingStarted",
          "type": "bool"
        },
        {
          "internalType": "bool",
          "name": "votingEnded",
          "type": "bool"
        }
      ],
      "stateMutability": "view",
      "type": "function"
    },
    {
      "inputs": [],
      "name": "proposalsCount",
      "outputs": [
        {
          "internalType": "uint256",
          "name": "",
          "type": "uint256"
        }
      ],
      "stateMutability": "view",
      "type": "function"
    },
    {
      "inputs": [
        {
          "internalType": "address",
          "name": "_delegate",
          "type": "address"
        }
      ],
      "name": "removeDelegate",
      "outputs": [],
      "stateMutability": "nonpayable",
      "type": "function"
    },
    {
      "inputs": [
        {
          "internalType": "uint256",
          "name": "_proposalId",
          "type": "uint256"
        }
      ],
      "name": "startVoting",
      "outputs": [],
      "stateMutability": "nonpayable",
      "type": "function"
    },
    {
      "inputs": [
        {
          "internalType": "uint256",
          "name": "_proposalId",
          "type": "uint256"
        },
        {
          "internalType": "uint8",
          "name": "_choice",
          "type": "uint8"
        }
      ],
      "name": "vote",
      "outputs": [],
      "stateMutability": "nonpayable",
      "type": "function"
    }
  ],
  "bytecode": "0x60806040523480156200001157600080fd5b50336000806101000a81548173ffffffffffffffffffffffffffffffffffffffff021916908373ffffffffffffffffffffffffffffffffffffffff160217905550620000b26040518060400160405280601b81526020017f43796265727365637572697479204c61772028416d656e6465642900000000008152506040518060c00160405280609a815260200162002f19609a9139620000b860201b60201c565b620007c0565b60008054906101000a900473ffffffffffffffffffffffffffffffffffffffff1673ffffffffffffffffffffffffffffffffffffffff163373ffffffffffffffffffffffffffffffffffffffff161462000149576040517f08c379a000000000000000000000000000000000000000000000000000000000815260040162000140906200031f565b60405180910390fd5b600460008154809291906200015e906200037a565b9190505550604051806101000160405280600454815260200183815260200182815260200160008152602001600081526020016000815260200160001515815260200160001515815250600360006004548152602001908152602001600020600082015181600001556020820151816001019081620001de919062000637565b506040820151816002019081620001f6919062000637565b50606082015181600301556080820151816004015560a0820151816005015560c08201518160060160006101000a81548160ff02191690831515021790555060e08201518160060160016101000a81548160ff0219169083151502179055509050506004547f9c770c289ab5bf7e57cb1d23c8ceae993aea46eb64847072fd3d78ca60d3e432836040516200028c91906200079c565b60405180910390a25050565b600082825260208201905092915050565b7f4552524f523a204f6e6c792074686520456c656374696f6e20436f6d6d69737360008201527f696f6e2063616e20706572666f726d207468697320616374696f6e2100000000602082015250565b600062000307603c8362000298565b91506200031482620002a9565b604082019050919050565b600060208201905081810360008301526200033a81620002f8565b9050919050565b7f4e487b7100000000000000000000000000000000000000000000000000000000600052601160045260246000fd5b6000819050919050565b6000620003878262000370565b91507fffffffffffffffffffffffffffffffffffffffffffffffffffffffffffffffff8203620003bc57620003bb62000341565b5b600182019050919050565b600081519050919050565b7f4e487b7100000000000000000000000000000000000000000000000000000000600052604160045260246000fd5b7f4e487b7100000000000000000000000000000000000000000000000000000000600052602260045260246000fd5b600060028204905060018216806200044957607f821691505b6020821081036200045f576200045e62000401565b5b50919050565b60008190508160005260206000209050919050565b60006020601f8301049050919050565b600082821b905092915050565b600060088302620004c97fffffffffffffffffffffffffffffffffffffffffffffffffffffffffffffffff826200048a565b620004d586836200048a565b95508019841693508086168417925050509392505050565b6000819050919050565b600062000518620005126200050c8462000370565b620004ed565b62000370565b9050919050565b6000819050919050565b6200053483620004f7565b6200054c62000543826200051f565b84845462000497565b825550505050565b600090565b6200056362000554565b6200057081848462000529565b505050565b5b8181101562000598576200058c60008262000559565b60018101905062000576565b5050565b601f821115620005e757620005b18162000465565b620005bc846200047a565b81016020851015620005cc578190505b620005e4620005db856200047a565b83018262000575565b50505b505050565b600082821c905092915050565b60006200060c60001984600802620005ec565b1980831691505092915050565b6000620006278383620005f9565b9150826002028217905092915050565b6200064282620003c7565b67ffffffffffffffff8111156200065e576200065d620003d2565b5b6200066a825462000430565b620006778282856200059c565b600060209050601f831160018114620006af57600084156200069a578287015190505b620006a6858262000619565b86555062000716565b601f198416620006bf8662000465565b60005b82811015620006e957848901518255600182019150602085019450602081019050620006c2565b8683101562000709578489015162000705601f891682620005f9565b8355505b6001600288020188555050505b505050505050565b60005b838110156200073e57808201518184015260208101905062000721565b60008484015250505050565b6000601f19601f8301169050919050565b60006200076882620003c7565b62000774818562000298565b9350620007868185602086016200071e565b62000791816200074a565b840191505092915050565b60006020820190508181036000830152620007b881846200075b565b905092915050565b61274980620007d06000396000f3fe608060405234801561001057600080fd5b50600436106100ea5760003560e01c80635f9a062a1161008c57806365e481e21161006657806365e481e21461027c57806367e7646f14610298578063943e8216146102b4578063aab46b7f146102d0576100ea565b80635f9a062a14610214578063649f89a51461023057806364bc82c31461024c576100ea565b806327b33dd3116100c857806327b33dd3146101775780632d4258e7146101955780633d2f5bda146101c857806343859632146101e4576100ea565b8063013cf08b146100ef5780630a9f46ad146101265780631498b91b14610144575b600080fd5b6101096004803603810190610104919061175b565b6102ee565b60405161011d989796959493929190611842565b60405180910390f35b61012e610460565b60405161013b91906118ce565b60405180910390f35b61015e60048036038101906101599190611947565b610466565b60405161016e9493929190611983565b60405180910390f35b61017f610673565b60405161018c9190611a94565b60405180910390f35b6101af60048036038101906101aa9190611947565b610701565b6040516101bf9493929190611983565b60405180910390f35b6101e260048036038101906101dd919061175b565b61086e565b005b6101fe60048036038101906101f99190611ab6565b610a04565b60405161020b9190611af6565b60405180910390f35b61022e60048036038101906102299190611c46565b610a33565b005b61024a6004803603810190610245919061175b565b610d8e565b005b6102666004803603810190610261919061175b565b610f75565b6040516102739190611cd1565b60405180910390f35b61029660048036038101906102919190611cec565b610fb4565b005b6102b260048036038101906102ad9190611947565b611189565b005b6102ce60048036038101906102c99190611d9d565b611347565b005b6102d86116ed565b6040516102e59190611cd1565b60405180910390f35b600360205280600052604060002060009150905080600001549080600101805461031790611e0c565b80601f016020809104026020016040519081016040528092919081815260200182805461034390611e0c565b80156103905780601f1061036557610100808354040283529160200191610390565b820191906000526020600020905b81548152906001019060200180831161037357829003601f168201915b5050505050908060020180546103a590611e0c565b80601f01602080910402602001604051908101604052809291908181526020018280546103d190611e0c565b801561041e5780601f106103f35761010080835404028352916020019161041e565b820191906000526020600020905b81548152906001019060200180831161040157829003601f168201915b5050505050908060030154908060040154908060050154908060060160009054906101000a900460ff16908060060160019054906101000a900460ff16905088565b60045481565b6000606080600080600160008773ffffffffffffffffffffffffffffffffffffffff1673ffffffffffffffffffffffffffffffffffffffff1681526020019081526020016000206040518060800160405290816000820160009054906101000a900473ffffffffffffffffffffffffffffffffffffffff1673ffffffffffffffffffffffffffffffffffffffff1673ffffffffffffffffffffffffffffffffffffffff16815260200160018201805461051e90611e0c565b80601f016020809104026020016040519081016040528092919081815260200182805461054a90611e0c565b80156105975780601f1061056c57610100808354040283529160200191610597565b820191906000526020600020905b81548152906001019060200180831161057a57829003601f168201915b505050505081526020016002820180546105b090611e0c565b80601f01602080910402602001604051908101604052809291908181526020018280546105dc90611e0c565b80156106295780601f106105fe57610100808354040283529160200191610629565b820191906000526020600020905b81548152906001019060200180831161060c57829003601f168201915b505050505081526020016003820160009054906101000a900460ff161515151581525050905080600001518160200151826040015183606001519450945094509450509193509193565b606060028054806020026020016040519081016040528092919081815260200182805480156106f757602002820191906000526020600020905b8160009054906101000a900473ffffffffffffffffffffffffffffffffffffffff1673ffffffffffffffffffffffffffffffffffffffff16815260200190600101908083116106ad575b5050505050905090565b60016020528060005260406000206000915090508060000160009054906101000a900473ffffffffffffffffffffffffffffffffffffffff169080600101805461074a90611e0c565b80601f016020809104026020016040519081016040528092919081815260200182805461077690611e0c565b80156107c35780601f10610798576101008083540402835291602001916107c3565b820191906000526020600020905b8154815290600101906020018083116107a657829003601f168201915b5050505050908060020180546107d890611e0c565b80601f016020809104026020016040519081016040528092919081815260200182805461080490611e0c565b80156108515780601f1061082657610100808354040283529160200191610851565b820191906000526020600020905b81548152906001019060200180831161083457829003601f168201915b5050505050908060030160009054906101000a900460ff16905084565b60008054906101000a900473ffffffffffffffffffffffffffffffffffffffff1673ffffffffffffffffffffffffffffffffffffffff163373ffffffffffffffffffffffffffffffffffffffff16146108fc576040517f08c379a00000000000000000000000000000000000000000000000000000000081526004016108f390611eaf565b60405180910390fd5b60008111801561090e57506004548111155b61094d576040517f08c379a000000000000000000000000000000000000000000000000000000000815260040161094490611f1b565b60405180910390fd5b60006003600083815260200190815260200160002090508060060160009054906101000a900460ff16156109b6576040517f08c379a00000000000000000000000000000000000000000000000000000000081526004016109ad90611fad565b60405180910390fd5b60018160060160006101000a81548160ff021916908315150217905550817fcf33babc496bb6dc2942b39cb7b75766bbbadf7da50d176ff8c513e99114023960405160405180910390a25050565b60056020528160005260406000206020528060005260406000206000915091509054906101000a900460ff1681565b60008054906101000a900473ffffffffffffffffffffffffffffffffffffffff1673ffffffffffffffffffffffffffffffffffffffff163373ffffffffffffffffffffffffffffffffffffffff1614610ac1576040517f08c379a0000000000000000000000000000000000000000000000000000000008152600401610ab890611eaf565b60405180910390fd5b600073ffffffffffffffffffffffffffffffffffffffff168373ffffffffffffffffffffffffffffffffffffffff1603610b30576040517f08c379a0000000000000000000000000000000000000000000000000000000008152600401610b2790612019565b60405180910390fd5b600073ffffffffffffffffffffffffffffffffffffffff16600160008573ffffffffffffffffffffffffffffffffffffffff1673ffffffffffffffffffffffffffffffffffffffff16815260200190815260200160002060000160009054906101000a900473ffffffffffffffffffffffffffffffffffffffff1673ffffffffffffffffffffffffffffffffffffffff1603610c2a576002839080600181540180825580915050600190039060005260206000200160009091909190916101000a81548173ffffffffffffffffffffffffffffffffffffffff021916908373ffffffffffffffffffffffffffffffffffffffff1602179055505b60405180608001604052808473ffffffffffffffffffffffffffffffffffffffff16815260200183815260200182815260200160011515815250600160008573ffffffffffffffffffffffffffffffffffffffff1673ffffffffffffffffffffffffffffffffffffffff16815260200190815260200160002060008201518160000160006101000a81548173ffffffffffffffffffffffffffffffffffffffff021916908373ffffffffffffffffffffffffffffffffffffffff1602179055506020820151816001019081610cff91906121e5565b506040820151816002019081610d1591906121e5565b5060608201518160030160006101000a81548160ff0219169083151502179055509050508273ffffffffffffffffffffffffffffffffffffffff167f106fc95fdabc935e1940a52097f663a45a100eb6b7461c7c18405498ad158da88383604051610d819291906122b7565b60405180910390a2505050565b60008054906101000a900473ffffffffffffffffffffffffffffffffffffffff1673ffffffffffffffffffffffffffffffffffffffff163373ffffffffffffffffffffffffffffffffffffffff1614610e1c576040517f08c379a0000000000000000000000000000000000000000000000000000000008152600401610e1390611eaf565b60405180910390fd5b600081118015610e2e57506004548111155b610e6d576040517f08c379a0000000000000000000000000000000000000000000000000000000008152600401610e6490611f1b565b60405180910390fd5b60006003600083815260200190815260200160002090508060060160009054906101000a900460ff16610ed5576040517f08c379a0000000000000000000000000000000000000000000000000000000008152600401610ecc90612360565b60405180910390fd5b8060060160019054906101000a900460ff1615610f27576040517f08c379a0000000000000000000000000000000000000000000000000000000008152600401610f1e906123cc565b60405180910390fd5b60018160060160016101000a81548160ff021916908315150217905550817f81eb7415440ff8e6c8e92606fd3b0e5e6a5c99ea90cdb63b41aec54e897312b360405160405180910390a25050565b60028181548110610f8557600080fd5b906000526020600020016000915054906101000a900473ffffffffffffffffffffffffffffffffffffffff1681565b60008054906101000a900473ffffffffffffffffffffffffffffffffffffffff1673ffffffffffffffffffffffffffffffffffffffff163373ffffffffffffffffffffffffffffffffffffffff1614611042576040517f08c379a000000000000000000000000000000000000000000000000000000000815260040161103990611eaf565b60405180910390fd5b600460008154809291906110559061241b565b91905055506040518061010001604052806004548152602001838152602001828152602001600081526020016000815260200160008152602001600015158152602001600015158152506003600060045481526020019081526020016000206000820151816000015560208201518160010190816110d391906121e5565b5060408201518160020190816110e991906121e5565b50606082015181600301556080820151816004015560a0820151816005015560c08201518160060160006101000a81548160ff02191690831515021790555060e08201518160060160016101000a81548160ff0219169083151502179055509050506004547f9c770c289ab5bf7e57cb1d23c8ceae993aea46eb64847072fd3d78ca60d3e4328360405161117d9190612463565b60405180910390a25050565b60008054906101000a900473ffffffffffffffffffffffffffffffffffffffff1673ffffffffffffffffffffffffffffffffffffffff163373ffffffffffffffffffffffffffffffffffffffff1614611217576040517f08c379a000000000000000000000000000000000000000000000000000000000815260040161120e90611eaf565b60405180910390fd5b600160008273ffffffffffffffffffffffffffffffffffffffff1673ffffffffffffffffffffffffffffffffffffffff16815260200190815260200160002060030160009054906101000a900460ff166112a6576040517f08c379a000000000000000000000000000000000000000000000000000000000815260040161129d906124f7565b60405180910390fd5b6000600160008373ffffffffffffffffffffffffffffffffffffffff1673ffffffffffffffffffffffffffffffffffffffff16815260200190815260200160002060030160006101000a81548160ff0219169083151502179055508073ffffffffffffffffffffffffffffffffffffffff167f5a362b199d4fb2bd4e51a3436d86df24cb19b1b0890da774e2b54253d53aa4eb60405160405180910390a250565b600160003373ffffffffffffffffffffffffffffffffffffffff1673ffffffffffffffffffffffffffffffffffffffff16815260200190815260200160002060030160009054906101000a900460ff166113d6576040517f08c379a00000000000000000000000000000000000000000000000000000000081526004016113cd90612589565b60405180910390fd5b6000821180156113e857506004548211155b611427576040517f08c379a000000000000000000000000000000000000000000000000000000000815260040161141e90611f1b565b60405180910390fd5b60006003600084815260200190815260200160002090508060060160009054906101000a900460ff1661148f576040517f08c379a000000000000000000000000000000000000000000000000000000000815260040161148690612360565b60405180910390fd5b8060060160019054906101000a900460ff16156114e1576040517f08c379a00000000000000000000000000000000000000000000000000000000081526004016114d8906125f5565b60405180910390fd5b6005600084815260200190815260200160002060003373ffffffffffffffffffffffffffffffffffffffff1673ffffffffffffffffffffffffffffffffffffffff16815260200190815260200160002060009054906101000a900460ff161561157f576040517f08c379a000000000000000000000000000000000000000000000000000000000815260040161157690612687565b60405180910390fd5b60018260ff1610158015611597575060038260ff1611155b6115d6576040517f08c379a00000000000000000000000000000000000000000000000000000000081526004016115cd906126f3565b60405180910390fd5b60016005600085815260200190815260200160002060003373ffffffffffffffffffffffffffffffffffffffff1673ffffffffffffffffffffffffffffffffffffffff16815260200190815260200160002060006101000a81548160ff02191690831515021790555060018260ff16036116695780600301600081548092919061165f9061241b565b91905055506116bb565b60028260ff1603611693578060040160008154809291906116899061241b565b91905055506116ba565b60038260ff16036116b9578060050160008154809291906116b39061241b565b91905055505b5b5b827f9593d9bd30eff4872ec3bab10360ad82eaac80651801e68f47f0674c38415c3d60405160405180910390a2505050565b60008054906101000a900473ffffffffffffffffffffffffffffffffffffffff1681565b6000604051905090565b600080fd5b600080fd5b6000819050919050565b61173881611725565b811461174357600080fd5b50565b6000813590506117558161172f565b92915050565b6000602082840312156117715761177061171b565b5b600061177f84828501611746565b91505092915050565b61179181611725565b82525050565b600081519050919050565b600082825260208201905092915050565b60005b838110156117d15780820151818401526020810190506117b6565b60008484015250505050565b6000601f19601f8301169050919050565b60006117f982611797565b61180381856117a2565b93506118138185602086016117b3565b61181c816117dd565b840191505092915050565b60008115159050919050565b61183c81611827565b82525050565b600061010082019050611858600083018b611788565b818103602083015261186a818a6117ee565b9050818103604083015261187e81896117ee565b905061188d6060830188611788565b61189a6080830187611788565b6118a760a0830186611788565b6118b460c0830185611833565b6118c160e0830184611833565b9998505050505050505050565b60006020820190506118e36000830184611788565b92915050565b600073ffffffffffffffffffffffffffffffffffffffff82169050919050565b6000611914826118e9565b9050919050565b61192481611909565b811461192f57600080fd5b50565b6000813590506119418161191b565b92915050565b60006020828403121561195d5761195c61171b565b5b600061196b84828501611932565b91505092915050565b61197d81611909565b82525050565b60006080820190506119986000830187611974565b81810360208301526119aa81866117ee565b905081810360408301526119be81856117ee565b90506119cd6060830184611833565b95945050505050565b600081519050919050565b600082825260208201905092915050565b6000819050602082019050919050565b611a0b81611909565b82525050565b6000611a1d8383611a02565b60208301905092915050565b6000602082019050919050565b6000611a41826119d6565b611a4b81856119e1565b9350611a56836119f2565b8060005b83811015611a87578151611a6e8882611a11565b9750611a7983611a29565b925050600181019050611a5a565b5085935050505092915050565b60006020820190508181036000830152611aae8184611a36565b905092915050565b60008060408385031215611acd57611acc61171b565b5b6000611adb85828601611746565b9250506020611aec85828601611932565b9150509250929050565b6000602082019050611b0b6000830184611833565b92915050565b600080fd5b600080fd5b7f4e487b7100000000000000000000000000000000000000000000000000000000600052604160045260246000fd5b611b53826117dd565b810181811067ffffffffffffffff82111715611b7257611b71611b1b565b5b80604052505050565b6000611b85611711565b9050611b918282611b4a565b919050565b600067ffffffffffffffff821115611bb157611bb0611b1b565b5b611bba826117dd565b9050602081019050919050565b82818337600083830152505050565b6000611be9611be484611b96565b611b7b565b905082815260208101848484011115611c0557611c04611b16565b5b611c10848285611bc7565b509392505050565b600082601f830112611c2d57611c2c611b11565b5b8135611c3d848260208601611bd6565b91505092915050565b600080600060608486031215611c5f57611c5e61171b565b5b6000611c6d86828701611932565b935050602084013567ffffffffffffffff811115611c8e57611c8d611720565b5b611c9a86828701611c18565b925050604084013567ffffffffffffffff811115611cbb57611cba611720565b5b611cc786828701611c18565b9150509250925092565b6000602082019050611ce66000830184611974565b92915050565b60008060408385031215611d0357611d0261171b565b5b600083013567ffffffffffffffff811115611d2157611d20611720565b5b611d2d85828601611c18565b925050602083013567ffffffffffffffff811115611d4e57611d4d611720565b5b611d5a85828601611c18565b9150509250929050565b600060ff82169050919050565b611d7a81611d64565b8114611d8557600080fd5b50565b600081359050611d9781611d71565b92915050565b60008060408385031215611db457611db361171b565b5b6000611dc285828601611746565b9250506020611dd385828601611d88565b9150509250929050565b7f4e487b7100000000000000000000000000000000000000000000000000000000600052602260045260246000fd5b60006002820490506001821680611e2457607f821691505b602082108103611e3757611e36611ddd565b5b50919050565b7f4552524f523a204f6e6c792074686520456c656374696f6e20436f6d6d69737360008201527f696f6e2063616e20706572666f726d207468697320616374696f6e2100000000602082015250565b6000611e99603c836117a2565b9150611ea482611e3d565b604082019050919050565b60006020820190508181036000830152611ec881611e8c565b9050919050565b7f4552524f523a2050726f706f73616c20646f6573206e6f742065786973742100600082015250565b6000611f05601f836117a2565b9150611f1082611ecf565b602082019050919050565b60006020820190508181036000830152611f3481611ef8565b9050919050565b7f4552524f523a20566f74696e672068617320616c72656164792073746172746560008201527f6421000000000000000000000000000000000000000000000000000000000000602082015250565b6000611f976022836117a2565b9150611fa282611f3b565b604082019050919050565b60006020820190508181036000830152611fc681611f8a565b9050919050565b7f4552524f523a20496e76616c69642077616c6c65742061646472657373210000600082015250565b6000612003601e836117a2565b915061200e82611fcd565b602082019050919050565b6000602082019050818103600083015261203281611ff6565b9050919050565b60008190508160005260206000209050919050565b60006020601f8301049050919050565b600082821b905092915050565b60006008830261209b7fffffffffffffffffffffffffffffffffffffffffffffffffffffffffffffffff8261205e565b6120a5868361205e565b95508019841693508086168417925050509392505050565b6000819050919050565b60006120e26120dd6120d884611725565b6120bd565b611725565b9050919050565b6000819050919050565b6120fc836120c7565b612110612108826120e9565b84845461206b565b825550505050565b600090565b612125612118565b6121308184846120f3565b505050565b5b818110156121545761214960008261211d565b600181019050612136565b5050565b601f8211156121995761216a81612039565b6121738461204e565b81016020851015612182578190505b61219661218e8561204e565b830182612135565b50505b505050565b600082821c905092915050565b60006121bc6000198460080261219e565b1980831691505092915050565b60006121d583836121ab565b9150826002028217905092915050565b6121ee82611797565b67ffffffffffffffff81111561220757612206611b1b565b5b6122118254611e0c565b61221c828285612158565b600060209050601f83116001811461224f576000841561223d578287015190505b61224785826121c9565b8655506122af565b601f19841661225d86612039565b60005b8281101561228557848901518255600182019150602085019450602081019050612260565b868310156122a2578489015161229e601f8916826121ab565b8355505b6001600288020188555050505b505050505050565b600060408201905081810360008301526122d181856117ee565b905081810360208301526122e581846117ee565b90509392505050565b7f4552524f523a20566f74696e6720686173206e6f74207374617274656420796560008201527f7421000000000000000000000000000000000000000000000000000000000000602082015250565b600061234a6022836117a2565b9150612355826122ee565b604082019050919050565b600060208201905081810360008301526123798161233d565b9050919050565b7f4552524f523a20566f74696e672068617320616c726561647920656e64656421600082015250565b60006123b66020836117a2565b91506123c182612380565b602082019050919050565b600060208201905081810360008301526123e5816123a9565b9050919050565b7f4e487b7100000000000000000000000000000000000000000000000000000000600052601160045260246000fd5b600061242682611725565b91507fffffffffffffffffffffffffffffffffffffffffffffffffffffffffffffffff8203612458576124576123ec565b5b600182019050919050565b6000602082019050818103600083015261247d81846117ee565b905092915050565b7f4552524f523a2044656c656761746520697320616c726561647920696e61637460008201527f6976652100000000000000000000000000000000000000000000000000000000602082015250565b60006124e16024836117a2565b91506124ec82612485565b604082019050919050565b60006020820190508181036000830152612510816124d4565b9050919050565b7f4552524f523a20546869732077616c6c65742061646472657373206973206e6f60008201527f7420612076616c69642077686974656c69737465642064656c65676174652100602082015250565b6000612573603f836117a2565b915061257e82612517565b604082019050919050565b600060208201905081810360008301526125a281612566565b9050919050565b7f4552524f523a20566f74696e672068617320656e646564210000000000000000600082015250565b60006125df6018836117a2565b91506125ea826125a9565b602082019050919050565b6000602082019050818103600083015261260e816125d2565b9050919050565b7f4552524f523a2044656c65676174652068617320616c726561647920766f746560008201527f64206f6e20746869732070726f706f73616c2100000000000000000000000000602082015250565b60006126716033836117a2565b915061267c82612615565b604082019050919050565b600060208201905081810360008301526126a081612664565b9050919050565b7f4552524f523a20496e76616c696420766f74696e672063686f69636521000000600082015250565b60006126dd601d836117a2565b91506126e8826126a7565b602082019050919050565b6000602082019050818103600083015261270c816126d0565b905091905056fea2646970667358221220e74b6cd25c52794a3862f4285caa80d39f022517faae6df17f360ce659872aa564736f6c6343000818003344726166742043796265727365637572697479204c61772061696d656420617420656e68616e63696e67206e6174696f6e616c20696e666f726d6174696f6e2073656375726974792c2070726f74656374696e6720637269746963616c20696e666f726d6174696f6e20696e6672617374727563747572652c20616e642070726576656e74696e6720686967682d74656368206372696d65732e",
  "linkReferences": {},
  "deployedLinkReferences": {}
}